:04000000E8EF00F035
:0E0008003B82FACF01F0FBCF02F0A0EF01F037
:100018003B80D8CF13F0E8CF14F0E0CF15F0FACF3B
:1000280016F0FBCF17F0E9CF18F0EACF19F0E1CFBF
:100038001AF0E2CF1BF0D9CF1CF0DACF1DF0F3CFC6
:100048001EF0F4CF1FF0F6CF20F0F7CF21F0F8CF55
:1000580022F0F5CF23F09EAC4FD09E9C2D502E1051
:10006800D8A423D0C4500F6E106AD8900F3610361B
:10007800D8900F361036C3500F14316E000E10147E
:10008800326EC3CF31F0C4CF32F0000E2E6E010EA7
:100098002D6EC250C30B0409C26EC4CFBEFFFA0E48
:1000A800BE6429D0FA0EBE6E26D0C3CF0FF0060E5E
:1000B800106ED8900F32102EFCD7C450116E126AF1
:1000C800D89011361236D890113612360F501124A6
:1000D800336E000E1220346EC294C296C298C29A31
:1000E800000E2E6E000E2D6EC4CFBBFFFA0EBB6441
:1000F80002D0FA0EBB6EC282F2A042D0F290355006
:100108003610D8A402D0010E01D0000E0F6E106A6E
:1001180081A803D0116A112A01D0116A11500F1653
:10012800000E10160F501010D8A400F037503810D9
:10013800D8A402D0010E01D0000E0F6E106A81AA59
:1001480003D0116A112A01D0116A11500F16000E3E
:1001580010160F501010D8A400F081A803D00F6A11
:100168000F2A01D00F6A0F50356E366A81AA03D064
:100178000F6A0F2A01D00F6A0F50376E386AF29053
:1001880023C0F5FF22C0F8FF21C0F7FF20C0F6FF0B
:100198001FC0F4FF1EC0F3FF1DC0DAFF1CC0D9FF4B
:1001A8001BC0E2FF1AC0E1FF19C0EAFF18C0E9FF4F
:1001B80017C0FBFF16C0FAFF15C0E0FF14C0E8FF28
:1001C80013C0D8FF3B9010003FEF02F0000E3A6ECC
:1001D800100E396E61D083A004D0000E3A6E0C0E5A
:1001E800396E83A204D0000E3A6E0D0E396E83A4C8
:1001F80004D0000E3A6E0E0E396E83A662D0000E41
:100208003A6E0F0E47D083A004D0000E3A6E000E4F
:10021800396E83A204D0000E3A6E010E396E83A4A3
:1002280004D0000E3A6E020E396E83A64AD0000E34
:100238003A6E030E2FD083A004D0000E3A6E040E3F
:10024800396E83A204D0000E3A6E050E396E83A46F
:1002580004D0000E3A6E060E396E83A632D0000E18
:100268003A6E070E17D083A004D0000E3A6E080E1F
:10027800396E83A204D0000E3A6E090E396E83A43B
:1002880004D0000E3A6E0A0E396E83A61AD0000EFC
:100298003A6E0B0E396E15D02FC024F030C025F001
:1002A8002550000AD8A40DD02450000AD8B493D7FA
:1002B800010AD8B4A8D7030AD8B4BDD7010AD8B45C
:1002C800D2D739C026F03AC027F03ABE05D03A5006
:1002D80004E1100E395CD8A000F0000E8C6E08D036
:1002E80083881BD0838A19D0838C17D0838E15D02E
:1002F8002FC024F030C025F02550000AD8A40DD016
:100308002450000AD8B4ECD7010AD8B4EBD7030AB2
:10031800D8B4EAD7010AD8B4E9D72F4A302A30BE70
:100328001200305004E1040E2F5CD8A01200000E19
:10033800306E000E2F6E1200E9CF03F0EACF04F002
:10034800E1CF05F0E2CF06F0D9CF07F0DACF08F019
:10035800F3CF09F0F4CF0AF0F6CF0BF0F7CF0CF09B
:10036800F8CF0DF0F5CF0EF0F2B2F292F0B0F090B7
:10037800F0B2F0920EC0F5FF0DC0F8FF0CC0F7FF09
:100388000BC0F6FF0AC0F4FF09C0F3FF08C0DAFF8C
:1003980007C0D9FF06C0E2FF05C0E1FF04C0EAFFBD
:1003A80003C0E9FF02C0FBFF01C0FAFF3B92110046
:1003B8006BEC02F07BEC02F076EC02F071EC02F0F0
:1003C8004CEC02F031EC02F08BEC02F088EC02F01D
:1003D80020EC02F094EC02F091EC02F058EC02F000
:1003E8008EEC02F085EC02F08EEC02F063EC02F089
:1003F80080EC02F0C2821200DCEC01F081A803D08C
:10040800286A282A01D0286A2850356E366A81AAB7
:1004180003D0286A282A01D0286A2850376E386AFB
:10042800EAEC00F031C029F032C02AF033C02BF0DA
:1004380034C02CF000F0F4D79E9C9D8C9F9C000E3D
:10044800C46E000EC36EC294C296C298C29AC2808D
:10045800C09EC080C082C084120094943F0EBD1616
:10046800BD50F00B0C09BD6ECF0EBD16000EBE6E52
:10047800000EBF6E120000EE2DF0080EEE6AE806C0
:10048800FDE13B903B92000EF86E000100EF02F098
:100498009492BA50F00B0C09BA6ECF0EBA16000E31
:1004A800BB6E000EBC6E12009D92F90ECB6E000E54
:1004B800CC6ECA50FC0B0109CA6ECA84120093881C
:1004C800938AF286F290F1907D887D8A1200000E60
:1004D8007F6EF28EF28CD08E12009384F092F088A8
:1004E800F18812009382F090F086F18A12009380CE
:1004F800F292F288F18C12000F0E956E000E836E48
:100508001200949A829A12009498829812009496F3
:100518008296120094908290120092827E8212003B
:0605280092807E801200AB
:020000040020DA
:08000000FFFFFFFFFFFFFFFF00
:020000040030CA
:0E000000FF081F1EFF8981FF0FC00FE00F4099
:00000001FF
