:040000009AEF00F083
:0E0008002E82FACF01F0FBCF02F09CEF00F049
:100018002E80D8CF13F0E8CF14F0E0CF15F0FACF48
:1000280016F0FBCF17F0E9CF18F0EACF19F0E1CFBF
:100038001AF0E2CF1BF0D9CF1CF0DACF1DF0F3CFC6
:100048001EF0F4CF1FF0F6CF20F0F7CF21F0F8CF55
:1000580022F0F5CF23F09EAC45D09E9C2850291065
:10006800D8A41ED0C4500F6E106AD8900F36103620
:10007800D8900F361036C3500F142A6E000E101485
:100088002B6EC3CF2AF0C4CF2BF0000E296E010EC1
:10009800286EC250C30B0409C26EC4CFBFFF21D063
:1000A800C3CF0FF0060E106ED8900F32102EFCD76B
:1000B800C450116E126AD89011361236D890113683
:1000C80012360F5011242C6E000E12202D6EC29481
:1000D800C296C298C29A000E296E000E286EC4CF2E
:1000E800BCFFC28223C0F5FF22C0F8FF21C0F7FF82
:1000F80020C0F6FF1FC0F4FF1EC0F3FF1DC0DAFFCB
:100108001CC0D9FF1BC0E2FF1AC0E1FF19C0EAFFFB
:1001180018C0E9FF17C0FBFF16C0FAFF15C0E0FFC3
:1001280014C0E8FF13C0D8FF2E9010002DEF01F087
:10013800E9CF03F0EACF04F0E1CF05F0E2CF06F013
:10014800D9CF07F0DACF08F0F3CF09F0F4CF0AF0EF
:10015800F6CF0BF0F7CF0CF0F8CF0DF0F5CF0EF08F
:10016800F2B2F292F0B0F090F0B2F0920EC0F5FF59
:100178000DC0F8FF0CC0F7FF0BC0F6FF0AC0F4FF74
:1001880009C0F3FF08C0DAFF07C0D9FF06C0E2FFC5
:1001980005C0E1FF04C0EAFF03C0E9FF02C0FBFF9E
:1001A80001C0FAFF2E92110043EC01F053EC01F06C
:1001B8004EEC01F049EC01F021EC01F007EC01F004
:1001C8005BEC01F058EC01F0F2EC00F061EC01F0AE
:1001D8005EEC01F038EC01F0C28212009E9C9D8C0E
:1001E8009F9C92849286000EC46E000EC36EC294C9
:1001F800C296C298C29AC280C188C18AC09EC08075
:10020800C082C084120094943F0EBD16BD50F00BFE
:100218000C09BD6ECF0EBD16000EBE6E000EBF6E71
:100228001200D8EC00F02AC024F02BC025F02CC016
:1002380026F02DC027F000F0F6D79492BA50F00BB4
:100248000C09BA6ECF0EBA16000EBB6E000EBC6E4D
:1002580012002D6A2C6A2B6A2A6A296A286A2E904B
:100268002E92000115EF01F09D92F90ECB6E000E53
:10027800CC6ECA50FC0B0109CA6ECA841200000E6B
:100288007F6EF28EF28CD08E12009384F092F088FA
:10029800F18812009382F090F086F18A1200938020
:1002A800F292F288F18C1200949882981200949637
:1002B8008296120092827E82120092807E801200C4
:020000040020DA
:08000000FFFFFFFFFFFFFFFF00
:020000040030CA
:0E000000FF081F1EFF8981FF0FC00FE00F4099
:00000001FF
