:04000000E8EF00F035
:0E0008003382FACF01F0FBCF02F0EAEF00F0F6
:100018003380D8CF13F0E8CF14F0E0CF15F0FACF43
:1000280016F0FBCF17F0E9CF18F0EACF19F0E1CFBF
:100038001AF0E2CF1BF0D9CF1CF0DACF1DF0F3CFC6
:100048001EF0F4CF1FF0F6CF20F0F7CF21F0F8CF55
:1000580022F0F5CF23F09EAC4FD09E9C29502A1059
:10006800D8A423D0C4500F6E106AD8900F3610361B
:10007800D8900F361036C3500F142B6E000E101484
:100088002C6EC3CF2BF0C4CF2CF0000E2A6E010EBD
:10009800296EC250C30B0409C26EC4CFBEFFF90E4D
:1000A800BE6429D0F90EBE6E26D0C3CF0FF0060E5F
:1000B800106ED8900F32102EFCD7C450116E126AF1
:1000C800D89011361236D890113612360F501124A6
:1000D8002D6E000E12202E6EC294C296C298C29A3D
:1000E800000E2A6E000E296EC4CFBBFFF90EBB644A
:1000F80002D0F90EBB6EC282F2A042D0F2902F500D
:100108003010D8A402D0010E01D0000E0F6E106A74
:1001180081A803D0116A112A01D0116A11500F1653
:10012800000E10160F501010D8A400F031503210E5
:10013800D8A402D0010E01D0000E0F6E106A81AA59
:1001480003D0116A112A01D0116A11500F16000E3E
:1001580010160F501010D8A400F081A803D00F6A11
:100168000F2A01D00F6A0F502F6E306A81AA03D070
:100178000F6A0F2A01D00F6A0F50316E326AF2905F
:1001880023C0F5FF22C0F8FF21C0F7FF20C0F6FF0B
:100198001FC0F4FF1EC0F3FF1DC0DAFF1CC0D9FF4B
:1001A8001BC0E2FF1AC0E1FF19C0EAFF18C0E9FF4F
:1001B80017C0FBFF16C0FAFF15C0E0FF14C0E8FF28
:1001C80013C0D8FF3390100091EF01F0E9CF03F08E
:1001D800EACF04F0E1CF05F0E2CF06F0D9CF07F07F
:1001E800DACF08F0F3CF09F0F4CF0AF0F6CF0BF02E
:1001F800F7CF0CF0F8CF0DF0F5CF0EF0F2B2F29287
:10020800F0B0F090F0B2F0920EC0F5FF0DC0F8FF1C
:100218000CC0F7FF0BC0F6FF0AC0F4FF09C0F3FFDC
:1002280008C0DAFF07C0D9FF06C0E2FF05C0E1FF3A
:1002380004C0EAFF03C0E9FF02C0FBFF01C0FAFFE8
:1002480033921100AFEC01F0BFEC01F0BAEC01F011
:10025800B5EC01F085EC01F077EC01F0CAEC01F0A7
:10026800C7EC01F066EC01F0D3EC01F0D0EC01F042
:100278009CEC01F0CDEC01F0C4EC01F0CDEC01F008
:10028800A7EC01F0C282120026EC01F081A803D08D
:10029800246A242A01D0246A24502F6E306A81AA45
:1002A80003D0246A242A01D0246A2450316E326A89
:1002B8002BC025F02CC026F02DC027F02EC028F02A
:1002C80000F0F6D79E9C9D8C9F9C000EC46E000E7D
:1002D800C36EC294C296C298C29AC280C09EC080A1
:1002E800C082C084120094943F0EBD16BD50F00B1E
:1002F8000C09BD6ECF0EBD16000EBE6E000EBF6E91
:1003080012009492BA50F00B0C09BA6ECF0EBA16BE
:10031800000EBB6E000EBC6E12002E6A2D6A2C6A8F
:100328002B6A2A6A296A33903392000148EF01F058
:100338009D92F90ECB6E000ECC6ECA50FC0B0109D3
:10034800CA6ECA8412009388938AF286F290F1905A
:100358007D887D8A1200000E7F6EF28EF28CD08E20
:1003680012009384F092F088F18812009382F09042
:10037800F086F18A12009380F292F288F18C1200D2
:10038800949A829A1200949882981200949682966F
:10039800120094908290120092827E8212009280C3
:0403A8007E80120041
:020000040020DA
:08000000FFFFFFFFFFFFFFFF00
:020000040030CA
:0E000000FF081F1EFF8981FF0FC00FE00F4099
:00000001FF
